:100000000C9472000C947E000C947E000C947E0084
:100010000C947E000C947E000C947E000C947E0068
:100020000C947E000C947E000C947E000C947E0058
:100030000C947E000C947E000C947E000C947E0048
:100040000C947E000C947E000C947E000C947E0038
:100050000C947E000C947E000C947E000C947E0028
:100060000C947E000C947E000C947E000C947E0018
:100070000C947E000C947E000C947E000C947E0008
:100080000C947E000C947E000C947E000C947E00F8
:100090000C947E000C947E000C947E000C947E00E8
:1000A0000C947E000C947E000C947E000C947E00D8
:1000B0000C947E000C947E000C947E000C947E00C8
:1000C0000C947E000C947E000C947E000C947E00B8
:1000D0000C947E000C947E000C947E000C947E00A8
:1000E0000C947E0011241FBECFEFD1E2DEBFCDBF46
:1000F00000E00CBF0E944C010C94B1010C94000074
:1001000084B1876084B92398289A81E58CBD8DB528
:100110008EB58FE39CE90197F1F700C000000895C8
:100120008EBD0DB407FEFDCF8EB50895289880686A
:100130000E94900080E00E949000289A0895CF933A
:10014000C62F28988F770E9490008C2F0E949000D5
:10015000289ACF910895EAE0F1E08081826080835F
:10016000EBE0F1E080818D7F80838FE39CE9019754
:10017000F1F700C000008081826080839FEF20E75C
:1001800082E0915020408040E1F700C0000060E82C
:1001900081E00E949F009FEF20E782E09150204085
:1001A0008040E1F700C0000008950E94AB0064E8C1
:1001B0008AE20E949F006AE08BE20E949F006EE349
:1001C0008DE20E949F0060E08CE20E949F0060E44C
:1001D00085E10E949F006DE381E10E949F0084E120
:1001E0000E949600682F6C6084E10E949F006FE37C
:1001F00082E10C949F001F93CF93DF93EC0160E8A2
:100200008AE00E949F0085E38A95F1F7000066E28C
:1002100089E00E949F0095E39A95F1F700006CE059
:1002200081E00E949F0085E38A95F1F700006CE071
:1002300081E00E949F0013E684E00E94960084FD06
:1002400027C08FE99FE00197F1F700C0000011502F
:1002500098F786E00E9496008F7D81111BC08AE08E
:100260000E9496008230B1F489E00E949600888353
:1002700089E00E9496008983988189278F3F51F4F5
:100280009F7B81E0943031F4DF91CF911F910895ED
:100290001111DFCF80E0F8CF0F920F92CDB7DEB70C
:1002A000269A1A8219820E9480000E94D5002E9AF6
:1002B0002FEF83ED90E3215080409040E1F700C0A4
:1002C00000002E988EEE0E9496008159823040F5F3
:1002D0002E9A2FEF89E698E1215080409040E1F777
:1002E00000C000002E982FEF89E698E12150804051
:1002F0009040E1F700C000002E9A2FEF89E698E1C8
:10030000215080409040E1F700C000002E982FEF70
:1003100089E698E1215080409040E1F700C000005C
:10032000CE0101960E94FB00811599F02E9A2FEFC5
:1003300081EE94E0215080409040E1F700C0000041
:100340002E982FEF81EE94E0215080409040E1F70D
:10035000E5CF2FEF83EC99E0215080409040E1F70A
:06036000DDCFF894FFCF91
:00000001FF
