:100000000C9472000C948B000C948B000C948B005D
:100010000C948B000C948B000C948B000C948B0034
:100020000C948B000C948B000C948B000C948B0024
:100030000C948B000C948B000C948B000C948B0014
:100040000C948B000C948B000C948B000C948B0004
:100050000C948B000C948B000C948B000C948B00F4
:100060000C948B000C948B000C948B000C948B00E4
:100070000C948B000C948B000C948B000C948B00D4
:100080000C948B000C948B000C948B000C948B00C4
:100090000C948B000C948B000C948B000C948B00B4
:1000A0000C948B000C948B000C948B000C948B00A4
:1000B0000C948B000C948B000C948B000C948B0094
:1000C0000C948B000C948B000C948B000C948B0084
:1000D0000C948B000C948B000C948B000C948B0074
:1000E0000C948B0011241FBECFEFD1E2DEBFCDBF39
:1000F00000E00CBF12E0A0E0B2E0E2E8F3E000E0D4
:100100000BBF02C007900D92AC31B107D9F70E9426
:100110007E010C94BF010C9400008AB183608AB9FF
:100120008BB183608BB988EC8093B80084E08093B6
:10013000BC00089584EA8093BC008091BC0087FFD6
:10014000FCCF089580E98093BC0008958093BB00A4
:1001500084E88093BC008091BC0087FFFCCF909125
:10016000B900987F81E0983209F080E00895CF933C
:10017000C82F0E949A008C2F0E94A60090E99093AD
:10018000BC00CF910895CF93DF93982F907FD92F04
:10019000D62BC82FC295C07FC62B0E949A008EE432
:1001A0000E94A6008D2F8C600E94A60085E08A9593
:1001B000F1F700008D2F8B7F88600E94A60087ECEE
:1001C00090E00197F1F700C000008C2F8C600E9436
:1001D000A60095E09A95F1F700008C2F8B7F886040
:1001E0000E94A60087EC90E00197F1F700C00000A4
:1001F00080E98093BC00DF91CF9108952FEF80E7D5
:1002000092E0215080409040E1F700C0000060E0A3
:1002100080E30E94C3008FE19EE40197F1F700C0E4
:10022000000060E080E30E94C30087E592E0019750
:10023000F1F700C0000060E080E20E94C3008FE997
:100240009FE00197F1F700C0000060E088E20E94A3
:10025000C3008FE99FE00197F1F700C0000060E064
:1002600088E00E94C3008FE99FE00197F1F700C08A
:10027000000060E081E00E94C3008FE39FE10197EE
:10028000F1F700C0000060E086E00E94C3008FE943
:100290009FE00197F1F700C0000060E08CE00E9451
:1002A000C3008FE99FE00197F1F700C000000895B7
:1002B000CF93DF93EC018991811103C0DF91CF913E
:1002C000089561E00E94C30087EC90E00197F1F788
:1002D00000C00000F0CF60E081E00E94C3008FE327
:1002E0009FE10197F1F700C000000895962F81115A
:1002F000905C60E0892F80680C94C300269A2FEFF1
:1003000083ED90E3215080409040E1F700C0000071
:100310000E948D0087E20E94B7008115A1F02E9AFD
:100320002FEF89E698E1215080409040E1F700C02E
:1003300000002E982FEF89E698E1215080409040F0
:10034000E1F700C000000E94FE002FEF80E792E07E
:10035000215080409040E1F700C0000060E080E064
:100360000E94760180E092E00E94580160E081E006
:100370000E9476018EE092E00E945801FFCFF8942F
:02038000FFCFAD
:1003820048656C6C6F2C20576F726C64210041724F
:0C0392006475696E6F204D6567610000A6
:00000001FF
